:10000000EEC000000C9480100C94A71010C10000EA
:100010000EC100000CC100000AC100000C9456146F
:1000200006C100000C94FD1402C100000C94C8200D
:10003000FEC00000FCC00000FAC00000F8C00000D4
:100040000C94CE10F4C000000C9475130C94A713FC
:10005000EEC00000ECC00000EAC00000E8C00000F4
:10006000E6C00000E4C000003E1DFD1E621F651FCB
:10007000411E741E2E1D351D121D451F341F411FAC
:10008000651F651F651FFD1C0000000800020100C0
:100090000003040700000000000000000102040843
:1000A00010204080010204081020010204081020E2
:1000B000040404040404040402020202020203030E
:1000C0000303030300000000250028002B000000AC
:1000D0000000240027002A0002001D3A2774694E00
:1000E00053E8F5D2CF9C81A6BBCDD0F7EAB9A48363
:1000F0009E25381F02514C6B76879ABDA0F3EEC93E
:10010000D46F7255481B06213C4A57706D3E23043C
:1001100019A2BF9885D6CBECF1130E2934677A5D0E
:1001200040FBE6C1DC8F92B5A8DEC3E4F9AAB79024
:100130008D362B0C11425F78659489AEB3E0FDDA01
:10014000C77C61465B0815322F5944637E2D3017FA
:100150000AB1AC8B96C5D8FFE2263B1C01524F6812
:1001600075CED3F4E9BAA7809DEBF6D1CC9F82A5DA
:10017000B8031E3924776A4D50A1BC9B86D5C8EFC1
:10018000F24954736E3D20071A6C71564B180522C4
:100190003F8499BEA3F0EDCAD735280F12415C7B8E
:1001A00066DDC0E7FAA9B4938EF8E5C2DF8C91B69C
:1001B000AB100D2A3764795E43B2AF8895C6DBFC7D
:1001C000E15A47607D2E3314097F6245580B163182
:1001D0002C978AADB0E3FED9C4002E01CC131124B4
:1001E0001FBECFEFD8E0DEBFCDBF14E0A0E0B1E08E
:1001F000ECEAFDE402C005900D92A031B107D9F7F9
:1002000026E0A0E1B4E001C01D92AD33B207E1F7F2
:1002100010E0CFEED0E004C02197FE010E944D25F2
:10022000CD3ED107C9F70E94D6220C94D426E8CE41
:1002300070E090E09C01220F331F820F931F805FBC
:100240009B4F0C94242270E090E09C01220F331FFE
:10025000820F931F805F9B4F0C945F2280E194E09C
:100260000C9489214F925F926F927F928F929F920E
:10027000AF92BF92CF92DF92EF92FF92E09137065A
:10028000F0913806E258FE4F6281653B08F064EB5E
:1002900080E0D9DF20913706309138068091EC025A
:1002A0009091ED02820F931F20917E0130917F018A
:1002B0002817390720F48091E8029091E902909381
:1002C00038068093370681E090E00E942D1040911F
:1002D000DC055091DD056091DE057091DF0580E061
:1002E00090E00E9429108090EC059090ED05A09080
:1002F000EE05B090EF0520E030E040E85FEBC5018F
:10030000B4010E94C423882331F1C090DC05D09051
:10031000DD05E090DE05F090DF05A7019601C5013F
:10032000B4010E945F234B015C0120E030E040E01B
:1003300054E3C701B6010E947E249B01AC01C501B4
:10034000B4010E947A24181634F087EF92E090935B
:10035000C7058093C6058091F005882331F087EFAB
:1003600092E09093C7058093C605C090E005D090B9
:10037000E105E090E205F090E3058FEFC81AD80A96
:10038000E80AF80AC092E005D092E105E092E205A1
:10039000F092E305C114D104E104F10499F48091D1
:1003A000E4059091E505A091E605B091E705019679
:1003B000A11DB11D8093E4059093E505A093E6058A
:1003C000B093E7058090E8059090E905A090EA05D4
:1003D000B090EB056091E4057091E5058091E6052C
:1003E0009091E7050E94C823A50194010E947E24F4
:1003F00020E030E040E85FE40E947E242B013C01D5
:10040000C701B6010E94C823A50194010E947E2461
:100410009B01AC01C301B2010E9460236093DC0523
:100420007093DD058093DE059093DF05FF90EF90DC
:10043000DF90CF90BF90AF909F908F907F906F9004
:100440005F904F900895CF93DF93A6ECB5E08BE2D9
:10045000ED0119928A95E9F740E050E060E87FEB02
:1004600096964D935D936D937C9399974AE057EDE3
:1004700063E27CE392964D935D936D937C939597A5
:1004800047E955E864E77CEA14964D935D936D93D4
:100490007C93179744EF58EE64E675E018964D93F9
:1004A0005D936D937C931B974CED53E860E370E490
:1004B0001C964D935D936D937C931F974FED5DEF6D
:1004C0006FE975EB50964D935D936D937C935397C5
:1004D000EDE2F4E01396FC93EE931297C7E2D4E0BA
:1004E000D183C08381EB93E0998388839B838A8344
:1004F0009D838C838AED95E0958384838AEC95E0D7
:10050000938382838CED95E097838683E1EFF5E01A
:1005100088E4EF0119928A95E9F723E134E084E158
:10052000E90119928A95E9F755963C932E935497D1
:1005300080E190E0D90111969C938E938EE591E035
:1005400013969C938E9312978EE391E015969C934D
:100550008E93149782E291E017969C938E93169750
:1005600086E091E019969C938E93189722E3268358
:1005700093E3978384E3808785E3818786E382879B
:1005800087E3838788E3848789E3858781E3868798
:1005900030E33787808B818B828B238B848B958B89
:1005A00087EF95E09583848381E090E0A0E0B0E060
:1005B00080839183A283B38364E080E039DE8091FD
:1005C000EA029091EB029093380680933706DF9110
:1005D000CF9108950895EF92FF920F931F93CF93B9
:1005E000DF93DC01EA01F90114968D919C91159736
:1005F00012960D911C911397080F191F28813981AC
:1006000018964D915C9119974217530728F04D9118
:100610005C911197452B39F17801E21AF30A18968B
:100620004D915C911997481B590B4E0D5F1D461754
:10063000570794F1A901460F571F40175107E0F0E3
:10064000F182E082338322836E197F09758364838C
:10065000161617061CF4382F292F02C030E020E0B0
:100660003683278313C018968D919C911997821B0E
:10067000930B8617970784F07183608333832283FB
:10068000158214821782168288819981680F791FDA
:100690007983688380E001C081E0DF91CF911F9171
:1006A0000F91FF90EF900895CF92DF92EF92FF921B
:1006B000CF93DF936B017C0184E48C9DE0018D9DE1
:1006C000D00D1124C75CDB4F8AA99BA9009721F0AC
:1006D0000E9432261BAA1AAA84E48C9DF0018D9DEB
:1006E000F00D1124E75CFB4F86A997A9009711F044
:1006F0000E94322684E48C9DF0018D9DF00D112422
:10070000E75CFB4F138A128A168A178A108E118EA5
:10071000128E138E148E158E168E178E10A211A2A5
:1007200081E090E093A382A315A214A216A217A2BF
:1007300010A611A613A612A615A614A616A617A6ED
:1007400010AA11AA13AA12AA15AA14AA17AA16AABD
:1007500011AE10AE12AE13AE14AE15AEDF01DE96C2
:100760001D921D921D921C921397EE5BFF4F1182FA
:100770001082DF91CF91FF90EF90DF90CF9008959E
:100780000F931F93CF93DF93EB01DC018D919C912D
:10079000FC01A681B781E881F98123E0EE0FFF1FFC
:1007A0002A95E1F712962D913C911397E20FF31FD2
:1007B00000811181AC85BD859D01220F331FDC01B5
:1007C00012968D919C911397D901A80FB91F8D9105
:1007D0009C9124813581232B19F461E070E002C0E3
:1007E00062E070E0869F9001879F300D969F300DEC
:1007F000112488859985289FB001299F700D389F05
:10080000700D1124EC81FD812E9FC0012F9F900D52
:100810003E9F900D1124800F911FFA0191838083D8
:1008200073836283DF91CF911F910F9108952F926F
:100830003F924F925F926F927F928F929F92AF9270
:10084000BF92CF92DF92EF92FF920F931F93CF93BD
:10085000DF9300D000D000D0CDB7DEB7DC01149616
:10086000ED91FC9115970190F081E02D80859185A7
:100870009A838983A281B381BC83AB83FB0181907E
:100880009190A190B190C12CD12C7601C814D904BB
:10089000EA04FB040CF05DC04480558066807780DC
:1008A0004085518562857385CF0140969E838D83F7
:1008B000A081B1819D0183E0220F331F8A95E1F76A
:1008C000A981BA8112968D919C911397D901A80F95
:1008D000B91F2D903C9011970484F585E02DEE0F03
:1008E000FF1F8B819C81E80FF91F0190F081E02DA3
:1008F00014968D919C911597892B19F481E090E0C5
:1009000002C082E090E08E9F90018F9F300D9E9FED
:10091000300D1124249F8001259F100D349F100D50
:100920001124249DC001259D900D349D900D11240E
:10093000A8016D817E81820D931D0E94BB26ED81F1
:10094000FE81E00FF11F9FEFC91AD90AE90AF90ADF
:100950009DCF26960FB6F894DEBF0FBECDBFDF91B8
:10096000CF911F910F91FF90EF90DF90CF90BF90AC
:10097000AF909F908F907F906F905F904F903F903F
:100980002F900895CF93DF93DB01A251BD4F2C919F
:10099000222369F024E4269FF001279FF00D112403
:1009A000E75CFB4FEF0119922A95E9F71C9224E4CA
:1009B000269FF001279FF00D1124E75CFB4F148266
:1009C0001582168217821186108613861286118A66
:1009D000108A17861686DF91CF9166CE2F923F92AE
:1009E0004F925F926F927F928F929F92AF92BF923F
:1009F000CF92DF92EF92FF920F931F93CF93DF93EB
:100A0000CDB7DEB728970FB6F894DEBF0FBECDBFC7
:100A100024E4269FD001279FB00D1124A75CBB4F73
:100A2000BC83AB8314960D911D912D913C9117972A
:100A3000012B022B032B09F4C1C02A016B017C019D
:100A4000612C712C812C912C5401B887AF831496A2
:100A5000BC83AB83EF81F8853896FE83ED83EB8111
:100A6000FC8180819181A281B38188169906AA06B2
:100A7000BB0694F5AD81BE81ED91FC91E60DF71DAD
:100A8000B281B98323812A830B2F122F212C312C81
:100A900024143504A4F4D801ED91FC91309749F069
:100AA000848195810E943226F801808191810E9483
:100AB0003226FFEF2F1A3F0A0E5F1F4FE9CF8981C1
:100AC0009A810E9432262FEF821A920AA20AB20A53
:100AD00034E0630E711CC3CFAF81B88518968D9139
:100AE0009C9119970E943226EF81F8858285938523
:100AF000892B81F100E010E01C821B8224E42C9DF4
:100B0000C0012D9D900D11249C012D5B3B4F59017F
:100B10002B813C81241535058CF4D501ED91FC9198
:100B2000E00FF11F848195810E943226EB81FC81C8
:100B30003196FC83EB83025F1F4FEACF84E48C9DE8
:100B4000F0018D9DF00D1124E75CFB4F82859385AC
:100B50000E94322684E48C9DD0018D9DB00D11241D
:100B6000A75CBB4FBC83AB8350968D919C915197F2
:100B70000E943226EB81FC81868597850E94322671
:100B8000C701B60191DDC701B60128960FB6F894EA
:100B9000DEBF0FBECDBFDF91CF911F910F91FF90B0
:100BA000EF90DF90CF90BF90AF909F908F907F900D
:100BB0006F905F904F903F902F90E4CE28960FB6A5
:100BC000F894DEBF0FBECDBFDF91CF911F910F9183
:100BD000FF90EF90DF90CF90BF90AF909F908F905D
:100BE0007F906F905F904F903F902F90089524E4F6
:100BF000269FF001279FF00D1124E75CFB4F8289AF
:100C000093890497029758F485E090E0938B828B48
:100C10008FEF9FEFDC01828F938FA48FB58F0895A4
:100C20002F923F924F925F926F927F928F929F92FC
:100C3000AF92BF92CF92DF92EF92FF920F931F93EA
:100C4000CF93DF93CDB7DEB7AA970FB6F894DEBF88
:100C50000FBECDBF9AA389A3788F6F8B7A01098BC2
:100C60001A8B2B8B3C8B84E429893A89829F600103
:100C7000839FD00C11248601075C1B4F89899A89B8
:100C8000AB89BC89F80180839183A283B383AB01D4
:100C9000BC01CD01A3DED601A35CBB4F84E0F7010C
:100CA00001900D928A95E1F71701F4E02F0E311CA7
:100CB00064E070E0D80114968D919C9115970E9484
:100CC0008025F80191878087892B09F481C11E8EC8
:100CD0001D8E198E1A8E1B8E1C8E18A30F8F9801D5
:100CE0002C5F3F4F38A72FA3A801485F5F4F5AA73B
:100CF00049A7EFA1F8A580819181A281B381298DB7
:100D00003A8D4B8D5C8D281739074A075B070CF02D
:100D1000CEC0A9A5BAA58D919C91ED8DFE8DE80F51
:100D2000F91FFE8BED8BD101ED91FC91EE0FFF1FB2
:100D3000A9A1BAA18D919C91E80FF91F80819181A1
:100D4000ED89FE8991838083D10114962D913D9187
:100D50004D915C9117972BA33CA34DA35EA3B8E0E4
:100D60002B0E311C62E070E08F89988D0E948025E7
:100D7000ED89FE8993838283892B09F429C1412C53
:100D8000512C32012BA13CA14DA15EA1421653066C
:100D9000640675060CF025C15101F4E0AF0EB11CDC
:100DA000D101ED90FC90EE0CFF1CED89FE890281D3
:100DB00013810E0D1F1D68E070E081E090E00E943D
:100DC0008025D8018D939C93ED89FE898281938142
:100DD000FC01EE0DFF1DC080D180C114D10409F4C7
:100DE000F7C084E0F501D60101900D928A95E1F7F4
:100DF000F8E02F0E311CF60180819181A281B38130
:100E0000181619061A061B060CF04BC064E070E0B9
:100E10000E948025D60115969C938E931497892B5A
:100E200009F4D6C0E12CF12C812C912C5401F6014F
:100E300080819181A281B38188169906AA06BB069A
:100E400084F5F601048115810E0D1F1D80E1F1016D
:100E5000DE01119601900D928A95E1F7F0E12F0ED7
:100E6000311CA801BE016F5F7F4FA9A1BAA11496E2
:100E70008D919C91159784DCF60126813781D801EC
:100E800012968D919C911397820F931F978386835F
:100E9000BFEF8B1A9B0AAB0ABB0AE4E0EE0EF11C13
:100EA000C6CFFFEF4F1A5F0A6F0A7F0A6BCF6EE063
:100EB00070E08F89988D0E948025AF8DB8A11B9618
:100EC0009C938E931A97A12CB12CC12CD12CE12C80
:100ED000F12C24E4E989FA892E9FC0012F9F900DFF
:100EE00011249C012D5B3B4F3E8B2D8B88248394DA
:100EF000912C4F89588DC416D5060CF041C0D101F4
:100F00004D905D906D907D901D01ED89FE89008171
:100F100011810A0D1B1D77FC5BC0D80111969C92B4
:100F20008E92411451046104710449F0C2010E947F
:100F30009A25F80195838483892B31F449C0D8011F
:100F400015961C921E921497F80153824282848156
:100F5000958197838683918780871386128681E0A7
:100F600090E045284628472811F480E090E0E80EFC
:100F7000F91EFFEFCF1ADF0A2EE0A20EB11CB9CF87
:100F800084E4A989BA898A9F80018B9F100D11245E
:100F9000075C1B4FF80115861486C70133E0880FE4
:100FA000991F3A95E1F70E949A25D80151969C9392
:100FB0008E935097892B61F0C701880F991F0E946B
:100FC0009A25F80197878687892B11F080E01CC04D
:100FD0004F89588D69897A898B899C89FFDC81E0EA
:100FE00013C0298D3A8D4B8D5C8D2F5F3F4F4F4F36
:100FF0005F4F298F3A8F4B8F5C8F4D8D5E8D4C5F8D
:101000005F4F5E8F4D8F75CEAA960FB6F894DEBFF8
:101010000FBECDBFDF91CF911F910F91FF90EF9049
:10102000DF90CF90BF90AF909F908F907F906F9008
:101030005F904F903F902F9008952F923F924F9244
:101040005F926F927F928F929F92AF92BF92CF9258
:10105000DF92EF92FF920F931F93CF93DF93CDB761
:10106000DEB768970FB6F894DEBF0FBECDBF9C8B7E
:101070008B8B69017A0124E42C9DC0012D9D900D7C
:1010800011249C01275C3B4F5901FB0120813181D8
:10109000F501358B248BDC01A15BBB4FFB01349642
:1010A00024E001900D922A95E1F7DC01AD5ABB4F87
:1010B000FB01389624E001900D922A95E1F7DC01BE
:1010C000A95ABB4FFB013C9624E001900D922A9552
:1010D000E1F7DC01A959BB4FFB01709684E0019058
:1010E0000D928A95E1F78B010C5E1F4FF50186A5E5
:1010F00097A5A0A9B1A9181619060CF064C0880F0D
:10110000991F880F991F0E949A25F50193AB82AB16
:10111000892B09F4B5C0812C912C412C512C320122
:101120009501225D3F4F3E8B2D8BC501C296988F56
:101130008F8BF496FA8BE98BB301A2012FEF421A41
:10114000520A620A720AED89FE8980819181A28128
:10115000B381481759076A077B0754F5EF89F88D63
:1011600020803180280C391C80E1F801DE011196C5
:1011700001900D928A95E1F7005F1F4FA101BE011A
:101180006F5F7F4FEB89FC8984819581F9DAE9896A
:10119000FA8920813181F10182819381820F931F2D
:1011A000E989FA8991838083F4E08F0E911CC4CF82
:1011B000F50184A995A90E949A25F50197AB86AB04
:1011C000892B09F45DC0F80180819181A281B381EE
:1011D00024E42C9DF0012D9DF00D1124E75CFB4FC4
:1011E000AC01BD014D7F21E030E0452B462B472B64
:1011F00011F020E030E033A322A324E42C9DF00181
:101200002D9DF00D1124E75CFB4F0197A109B10959
:1012100021E030E00297A105B10510F020E030E0B8
:1012200035A324A324E42C9DC0012D9D900D1124F1
:10123000DC01A15ABB4FF801349624E001900D92D5
:101240002A95E1F7FC01E75CFB4F868D978DA0A105
:10125000B1A1B7FF10C0B095A095909581959F4F13
:10126000AF4FBF4F82AF93AFA4AFB5AF168E178EFF
:1012700010A211A20AC012AE13AE14AE15AE05C074
:10128000C701B60111DA81E001C080E068960FB6AF
:10129000F894DEBF0FBECDBFDF91CF911F910F91AC
:1012A000FF90EF90DF90CF90BF90AF909F908F9086
:1012B0007F906F905F904F903F902F900895CF92C6
:1012C000DF92EF92FF92CF93DF931092C10424E458
:1012D000269FF001279FF00D1124E75CFB4F15A618
:1012E00014A620E030E0C12CD12CDF011A96C1E019
:1012F000D0E0C416D506D4F4ED91FC911197E20F1D
:10130000F31FE280F3801E141F0454F4E480F58080
:10131000F782E682F186E08613861286D183C08347
:10132000EFEFCE1ADE0A225F3F4FE3CF24E4269F81
:10133000F001279FF00D1124E75CFB4F13A612A6C6
:1013400011AE10AEDF01DE961D921D921D921C9211
:10135000139782E090E0938B828BDF91CF91FF9087
:10136000EF90DF90CF90089524E4269FF001279F0F
:10137000F00D1124E75CFB4F138A128A2FCB24E473
:10138000269FF001279FF00D1124E75CFB4F828917
:10139000938981309105C8F08530910518F0059743
:1013A00069F008958FEF9FEFDC01828F938FA48FF8
:1013B000B58F85E090E0938B828B08958FEF9FEF40
:1013C000DC01828F938FA48FB58F089524E4249F2E
:1013D000F001259FF00D1124E75CFB4F2EE0AC01DE
:1013E000249FC001259F900D11240284F385E02DD8
:1013F000E80FF91F81E08093C1048285938591876E
:101400008087408551852681378181E090E04217B1
:10141000530711F080E090E09183808308952F922C
:101420003F924F925F926F927F928F929F92AF9274
:10143000BF92CF92DF92EF92FF920F931F93CF93C1
:10144000DF93CDB7DEB7C055D1090FB6F894DEBF34
:101450000FBECDBF9EAF8DAF4BA75CA76DA77EA77C
:101460006801790184E48C9D80018D9D100D11240B
:10147000F801E75CFB4F2285338525963FAF2EAF01
:10148000259782899389029709F05FC186A597A560
:10149000A0A9B1A9892B8A2B8B2B29F484E090E099
:1014A000938B828B52C1848995894DAD5EAD48176F
:1014B000590709F04AC186A997A998AB8FA71CAE16
:1014C0001BAE1FAA18AE19AE1AAE8F01DF019E9691
:1014D0002796BFAFAEAF2797F2962996FFAFEEAF34
:1014E00029979801285C3F4F2B963FAF2EAF2B9743
:1014F000A8014A5D5F4F2D965FAF4EAF2D97C80193
:1015000082962F969FAF8EAF2F971A976196BFAF97
:10151000AEAF61972796EEADFFAD279780819181A1
:10152000A281B3812FA938AD49AD5AAD281739072B
:101530004A075B070CF0E8C02996EEADFFAD29978E
:10154000808191812BAD3CAD280F391F3CAB2BAB7B
:10155000D90112960D90BC91A02D2196BFAFAEAFD0
:101560002197B695A795B695A7952396BFAFAEAF31
:1015700023972B96EEADFFAD2B9780819181892B20
:1015800009F497C02D96AEADBFAD2D978D909D906F
:10159000AD90BC902FA438A8F9010190F081E02D06
:1015A000FAABE9AB1EAA1DAA23968EAD9FAD239779
:1015B000ADA9BEA9A817B9070CF07BC02F96AEAD98
:1015C000BFAD2F978D919C91892B71F1E9A9FAA953
:1015D0004080518062807380A3019201C501B401F3
:1015E0000E94C423181664F0D1012D913D914D91B4
:1015F0005C91C501B4010E947A2418160CF48CC0C9
:10160000A3019201C501B4010E94C42387FF0CC04D
:10161000F1012081318142815381C501B4010E94D1
:10162000C423882309F478C06196AEADBFAD61973D
:101630008D919C91892B69F1E9A9FAA9408051808B
:1016400062807380A3019201C501B4010E947A24D3
:10165000181664F4D1012D913D914D915C91C50115
:10166000B4010E94C42318160CF056C0A3019201C5
:10167000C501B4010E94C42381110BC0F101208176
:10168000318142815381C501B4010E94C42387FD89
:1016900043C02DA93EA92F5F3F4F3EAB2DAB34E099
:1016A000230E311C49A95AA94C5F5F4F5AAB49AB75
:1016B0007BCFEBA9FCA96081718121964EAD5FAD16
:1016C00021978FA598A90E94BB2623968EAD9FAD2A
:1016D0002397880F991F880F991F2FA538A9280FC6
:1016E000391F38AB2FA78FA998ADA9ADBAAD019618
:1016F000A11DB11D8FAB98AFA9AFBAAFABADBCAD5B
:101700001496BCAFABAF06CF81E090E0D801D9967C
:101710009C938E93D89719C084E48C9DF0018D9D85
:10172000F00D1124E75CFB4F868D978DA0A1B1A130
:10173000892B8A2B8B2B09F059C284E090E0938B84
:10174000828B86AD97AD93A782A784E48C9DF00130
:101750008D9DF00D1124E75CFB4F828993898230C7
:10176000910579F482AD93ADA4ADB5AD1816190607
:101770001A061B060CF041C2E1E0F0E0FAABE9AB5F
:1017800005C0049709F039C21AAA19AA8EE02DAD36
:101790003EAD829F8001839F100D112425964EAD92
:1017A0005FAD2597040F151FD80112962D913C911E
:1017B00013972115310509F420C216968D919C913D
:1017C00017979AA789A7FE01319684E1DF011D9240
:1017D0008A95E9F7C98ADA8AEB8AFC8AE9A9FAA923
:1017E000EF2B09F451C084E48C9DF0018D9DF00D28
:1017F0001124E75CFB4FDF01DE968D909D90AD904C
:10180000BC9082AD93ADA4ADB5AD88169906AA067D
:10181000BB06D1F5D80114964D915C911597189699
:10182000ED91FC911997349684E0DE015596019074
:101830000D928A95E1F78D899E8908969E8B8D8BF6
:10184000F80160857185860F971F91878087808555
:101850009185240F351F821B930B97FD04C0840FC5
:10186000951F9187808784E48C9DF0018D9DF00DFC
:101870001124E958FB4F21E0821A9108A108B10810
:1018800080829182A282B3829E012B5E3F4FAE0185
:10189000475D5F4F64E170E0C8010E94EB02282EB3
:1018A000312C2114310409F08AC18CE090E0A0E0D1
:1018B000B0E08D839E83AF83B8879E01235E3F4F48
:1018C000AE01475D5F4F64E070E0C8010E94EB022B
:1018D000282E312C2114310409F071C180E190E0EF
:1018E000A0E0B0E08D839E83AF83B8874D8D5E8D81
:1018F000BE01655D7F4F8F8D98A10E94BB268BA195
:101900009CA1009761F06D8D7E8D4BE250E04C0FF5
:101910005D1F640F751F49A15AA10E94BB261DA21D
:101920001EA21FA218A68DAD9EAD880F991F98AF5D
:101930008FAB24E42C9DC0012D9D900D1124875C5C
:101940009B4FDC011496BCAFABAFFC0138962196DF
:10195000FFAFEEAF21978DA09EA0AFA0B8A4EBADD6
:10196000FCAD80819181A281B38188169906AA0677
:10197000BB060CF0CDC02196AEADBFAD2197ED9169
:10198000FC91C401880F991F880F991FE80FF91F58
:10199000A081B1818C9181110AC0BFEF8B1A9B0A83
:1019A000AB0ABB0A8DA29EA2AFA2B8A6D4CF833049
:1019B000A1F30280F381E02D2FA938ADE20FF31FD0
:1019C000408151815CAB4BAB452B39F389859A85BE
:1019D000AB85BC850196A11DB11D89879A87AB8710
:1019E000BC879E01235E3F4FAE01475D5F4F64E0C1
:1019F00070E0C8010E94EB0290E0009709F0DEC0A1
:101A00008D819E81AF81B8850496A11DB11D8D8306
:101A10009E83AF83B8874D8D5E8DBE016B5D7F4F1A
:101A20008F8D98A10E94BB268BA19CA1009761F08D
:101A30006D8D7E8DA5E2B0E0AC0FBD1F6A0F7B1FE0
:101A400049A15AA10E94BB261EAA1DAA412C512CB5
:101A50003201EBA9FCA980819181A281B381481652
:101A600059066A067B060CF098CFEBA9FCA9848185
:101A700095812DA93EA9280F391F38AB2FA7D90171
:101A800012966D917C9113979E01235E3F4FAE019C
:101A9000475D5F4FC8010E94EB0290E0009709F09C
:101AA0008DC0EFA5F8A982819381092E000CAA0BA5
:101AB000BB0B4D815E816F817885840F951FA61FBA
:101AC000B71F8D839E83AF83B887608171814D8DF1
:101AD0005E8D8F8D98A10E94BB268BA19CA1009743
:101AE00061F0AFA5B8A96D917C912D8D3E8D620FEF
:101AF000731F49A15AA10E94BB26BFEF4B1A5B0A74
:101B00006B0A7B0AEDA9FEA93496FEABEDABA1CF23
:101B100089859A85AB85BC85892B8A2B8B2B09F40B
:101B20004EC08AE190E0A0E0B0E089839A83AB8365
:101B3000BC832DAD3EADC901330FAA0BBB0B8D8706
:101B40009E87AF87B88B4D895E89BE016F5F7F4FDF
:101B50008F89988D0E94BB268B8D9C8D009761F09C
:101B60006D897E8941E050E04C0F5D1F640F751F49
:101B7000498D5A8D0E94BB2689A59AA5D801179632
:101B80009C938E93169711961C921E92E9A9FAA91E
:101B9000EF2B99F184E48C9DF0018D9DF00D1124C3
:101BA000E958FB4F80819181A281B3810196A11DEB
:101BB000B11D80839183A283B3831FC01C0129A917
:101BC0003AA9232BD1F42328C1F084E48C9DF001A1
:101BD0008D9DF00D1124E75CFB4F81E090E095A70F
:101BE00084A785E090E0938B828B07C083E090E030
:101BF000938B828B81E090E0A6CDC05BDF4F0FB668
:101C0000F894DEBF0FBECDBFDF91CF911F910F9132
:101C1000FF90EF90DF90CF90BF90AF909F908F900C
:101C20007F906F905F904F903F902F900895CF924C
:101C3000DF92EF92FF920F931F9324E4269FF0010F
:101C4000279FF00D1124E75CFB4F22893389211572
:101C5000310509F453C06B017C0121303105B9F421
:101C600082A593A59C012F5F3F4F33A722A7092E82
:101C7000000CAA0BBB0B028D138D248D358D8017A4
:101C80009107A207B307D1F5C701B60118DB84E4B9
:101C90008C9DF0018D9DF00D1124E75CFB4F828936
:101CA0009389039759F582A593A59C012F5F3F4F18
:101CB00033A722A7092E000CAA0BBB0B468D578D0C
:101CC00060A171A184179507A607B707BCF086AD80
:101CD00097AD93A782A784E090E0938B828B82AD2F
:101CE00093ADA4ADB5AD181619061A061B0634F44B
:101CF000EE5BFF4F81E090E0918380831F910F9115
:101D0000FF90EF90DF90CF90089524E4269FF0019C
:101D1000279FF00D1124E75CFB4F8289938904977C
:101D2000B1F482A593A5019693A782A7092E000C72
:101D3000AA0BBB0B46895789608D718D8417950757
:101D4000A607B70721F485E090E0938B828B089576
:101D50002F923F924F925F926F927F928F929F92BB
:101D6000AF92BF92CF92DF92EF92FF920F931F93A9
:101D7000CF93DF93CDB7DEB72E970FB6F894DEBFC3
:101D80000FBECDBF49835A836B837C834901442EA8
:101D9000552E24E4249DF001259DF00D1124E75CCF
:101DA000FB4F2288338891012450310922303105BC
:101DB00008F0DFC0DC0111961C921E9213961C9253
:101DC0001E92129715861486A12CB12C60E070E04B
:101DD0009F01265F3F4F38872F837F013CE0E30E52
:101DE000F11CDF015096BA87A9879F01225F3F4F00
:101DF0003C872B87681579050CF06FC0EF81F8855B
:101E0000A081B1819D012A0D3B1D3E872D87D901FF
:101E10002D913C911197232B09F059C018960D91E3
:101E20001C9119971296ED91FC911397FE83ED8307
:101E300016962D913C911797D7014D915C91DA013F
:101E4000E3E0AA0FBB1FEA95E1F7E985FA85C080B8
:101E5000D180FD01EC0DFD1D440F551FAB85BC85E8
:101E6000CD90DC904C0D5D1DDA016D937C93D70114
:101E70004D915C9111974F5F5F4F4D935C9313832E
:101E80000283AD85BE851B963C932E931A9702174D
:101E9000130748F4201B310B3183208315821482F1
:101EA0001782168214C0AD85BE851496CD90DC9045
:101EB00015974D815E814C0D5D1D401B510B51836B
:101EC00040832C193D0935832483D782C6826F5FF6
:101ED0007F4FBEE0AB0EB11C8DCF24E4249D80016A
:101EE000259D100D1124075C1B4FF80124853585B5
:101EF000DC0111963C932E934089518913965C9393
:101F00004E9312974685578515965C934E9314977A
:101F1000232BB1F5B5E02B16310491F51092C104D5
:101F2000828D938DA48DB58DAE014F5F5F4F64E0C0
:101F300070E08F3F9F4FAF4FBF4F59F480E290E06A
:101F40000E94991869817A818B819C81A4010CDAA5
:101F500017C08FE190E00E949918D8019B961C92BF
:101F60001E929A9781E090E053969C938E9352979D
:101F700007C015861486FC0111821082138212821A
:101F80002E960FB6F894DEBF0FBECDBFDF91CF9176
:101F90001F910F91FF90EF90DF90CF90BF90AF9087
:101FA0009F908F907F906F905F904F903F902F9079
:101FB0000895EF92FF920F931F93CF93DF937C01CD
:101FC0008B01EA010E948019811121C08091F002E9
:101FD0009091F102049711F183E090E09093F10267
:101FE0008093F0021BC088818111F0CF28ED38EB7F
:101FF00045E050E060E070E0CB010E94091CAE01BA
:10200000B801C7010E94171CC8010E94E21B809101
:10201000C2049091C304892B31F3D8CFDF91CF91C3
:102020001F910F91FF90EF900895CF93DF93209130
:10203000F0023091F1022430310541F0EB010E94B1
:10204000171CCE01DF91CF910C94E21BDF91CF9151
:1020500008950C94F71F0C94EC1F0C94DA1F0C9449
:10206000F21B0C947D1F089560E070E080E090E02A
:102070000C945B190895AF92BF92CF92DF92EF92CA
:10208000FF920F931F93CF93DF9300D0CDB7DEB7AE
:102090005C0169017A018B0180E090E0C114D104F8
:1020A000E104F104F1F0C114D10421E0E206F104ED
:1020B00010F4A60102C04FEF5FEF9E012F5F3F4F6C
:1020C000B801C5010E9488208F3F2FEF920749F089
:1020D00029813A81C21AD30AE108F108020F131FBD
:1020E000DDCF0F900F90DF91CF911F910F91FF9057
:1020F000EF90DF90CF90BF90AF900895089508952E
:102100001F920F920FB60F9211242F933F934F936C
:102110005F936F937F938F939F93AF93BF93EF934F
:10212000FF93E091F202F091F3020995FF91EF9194
:10213000BF91AF919F918F917F916F915F914F91DF
:102140003F912F910F900FBE0F901F9018951F92E7
:102150000F920FB60F9211242F933F934F935F93DB
:102160006F937F938F939F93AF93BF93EF93FF935F
:10217000E091F402F091F5020995FF91EF91BF9182
:10218000AF919F918F917F916F915F914F913F910F
:102190002F910F900FBE0F901F9018951F920F92C6
:1021A0000FB60F9211242F933F938F939F93AF936A
:1021B000BF938091C5049091C604A091C704B091CB
:1021C000C8043091C40423E0230F2D3720F4019676
:1021D000A11DB11D05C026E8230F0296A11DB11D4A
:1021E0002093C4048093C5049093C604A093C704AD
:1021F000B093C8048091C9049091CA04A091CB0403
:10220000B091CC040196A11DB11D8093C904909397
:10221000CA04A093CB04B093CC04BF91AF919F911B
:102220008F913F912F910F900FBE0F901F90189597
:102230003FB7F8948091C9049091CA04A091CB044F
:10224000B091CC0426B5A89B05C02F3F19F001968C
:10225000A11DB11D3FBFBA2FA92F982F8827820F2C
:10226000911DA11DB11DBC01CD0142E0660F771F7C
:10227000881F991F4A95D1F708958F929F92AF9228
:10228000BF92CF92DF92EF92FF926B017C01D0DF81
:102290004B015C01C114D104E104F104F1F02EDF23
:1022A000C7DFDC01CB0188199909AA09BB09883E5F
:1022B0009340A105B10570F321E0C21AD108E108ED
:1022C000F10888EE880E83E0981EA11CB11CC11491
:1022D000D104E104F10421F7DDCFFF90EF90DF900E
:1022E000CF90BF90AF909F908F900895789484B5D1
:1022F000826084BD84B5816084BD85B5826085BD02
:1023000085B5816085BDEEE6F0E0808181608083E7
:10231000E1E8F0E0108280818260808380818160CA
:102320008083E0E8F0E0808181608083E1EBF0E091
:10233000808184608083E0EBF0E080818160808335
:10234000EAE7F0E08081846080838081826080831E
:102350008081816080838081806880831092C10049
:102360000895833081F028F4813099F08230A1F013
:1023700008958730A9F08830B9F08430D1F4809185
:1023800080008F7D03C0809180008F7780938000D4
:10239000089584B58F7702C084B58F7D84BD08957C
:1023A0008091B0008F7703C08091B0008F7D8093C3
:1023B000B0000895CF93DF9390E0FC01E456FF4F07
:1023C0002491FC01E055FF4F8491882361F190E056
:1023D000880F991FFC01E253FF4FC591D491FC0176
:1023E000EC53FF4FA591B491611109C09FB7F894C8
:1023F0008881209582238883EC912E230BC0623044
:1024000061F49FB7F8948881322F309583238883B5
:10241000EC912E2B2C939FBF06C08FB7F894E881C8
:102420002E2B28838FBFDF91CF9108951F93CF93D9
:10243000DF93282F30E0F901E857FF4F8491F9012D
:10244000E456FF4FD491F901E055FF4FC491CC23DE
:10245000B9F0162F811185DFEC2FF0E0EE0FFF1F92
:10246000EC53FF4FA591B4919FB7F894111104C09C
:102470008C91D095D82302C0EC91DE2BDC939FBFCA
:10248000DF91CF911F910895FC01918D228D892FAD
:1024900090E0805C9F4F821B91098F73992708956C
:1024A000FC01918D828D981731F0828DE80FF11D1E
:1024B000858D90E008958FEF9FEF0895FC01918D39
:1024C000828D981761F0828DDF01A80FB11D5D9696
:1024D0008C91928D9F5F9F73928F90E008958FEF04
:1024E0009FEF0895FC01538D448D252F30E0842FFC
:1024F00090E0821B930B541710F0CF96089501972C
:102500000895FC01848DDF01A80FB11DA35ABF4FB0
:102510002C91848D90E001968F739927848FA689E2
:10252000B7892C93A089B1898C91837080648C9336
:10253000938D848D981306C00288F389E02D8081E5
:102540008F7D80830895EF92FF920F931F93CF9317
:10255000DF93EC0181E0888F9B8D8C8D981305C0F3
:10256000E889F989808185FD25C0F62E0B8D10E064
:102570000F5F1F4F0F731127E02E8C8DE8120BC0D9
:102580000FB607FCFACFE889F989808185FFF5CF7E
:10259000CE01B7DFF2CF8B8DFE01E80FF11DE35ABC
:1025A000FF4FF0829FB7F8940B8FEA89FB898081F7
:1025B00080620AC09FB7F894EE89FF896083E8893A
:1025C000F98980818370806480839FBF81E090E07F
:1025D000DF91CF911F910F91FF90EF900895CF93CE
:1025E000DF93EC01888D8823C1F0EA89FB89808123
:1025F00085FD05C0A889B9898C9186FD0EC00FB6EE
:1026000007FCF5CF808185FFF2CFA889B9898C912D
:1026100085FFEDCFCE0175DFE8CFDF91CF91089533
:10262000CF92DF92EF92FF921F93CF93DF93EC0153
:102630006A017B01122FE889F98982E080834115C4
:10264000514E61057105B1F060E079E08DE390E0F5
:10265000A70196010E940F25DA01C9010197A1097E
:10266000B109B695A795979587959C01211580E1AD
:102670003807A8F0E889F989108260E874E88EE1EB
:1026800090E0A70196010E940F25DA01C901019788
:10269000A109B109B695A795979587959C01EC85F9
:1026A000FD853083EE85FF852083188EEC89FD89BA
:1026B0001083EA89FB89808180618083EA89FB89B4
:1026C000808188608083EA89FB898081806880833B
:1026D000EA89FB8980818F7D8083DF91CF911F9173
:1026E000FF90EF90DF90CF9008951F920F920FB65A
:1026F0000F9211242F938F939F93EF93FF93E09169
:10270000DD04F091DE048081E091E304F091E404C3
:1027100082FD12C090818091E6048F5F8F732091BB
:10272000E704821751F0E091E604F0E0E353FB4F39
:10273000958F8093E60401C08081FF91EF919F9176
:102740008F912F910F900FBE0F901F9018951F9291
:102750000F920FB60F9211242F933F934F935F93D5
:102760006F937F938F939F93AF93BF93EF93FF9359
:102770008DEC94E0C6DEFF91EF91BF91AF919F91F8
:102780008F917F916F915F914F913F912F910F901A
:102790000FBE0F901F901895EDECF4E0138212829B
:1027A00088EE93E0A0E0B0E084839583A683B783AE
:1027B00088EB93E09183808385EC90E09587848714
:1027C00084EC90E09787868780EC90E0918B808BFB
:1027D00081EC90E0938B828B82EC90E0958B848BE4
:1027E00086EC90E0978B868B118E128E138E148E52
:1027F0000895CF92DF92EF92FF920F931F93CF93A2
:10280000DF936C017A018B01C0E0D0E0CE15DF05CB
:1028100081F0D8016D918D01D601ED91FC9101906F
:10282000F081E02DC6010995892B11F02196EECF9C
:102830007E01C701DF91CF911F910F91FF90EF9023
:10284000DF90CF900895813039F018F0823051F048
:10285000089510926E00089580916F008D7F80938F
:102860006F000895809170008D7F8093700081E0EB
:102870008093B0008091B100887F84608093B10024
:102880001092B3000895CF93C82F8091F602C81319
:1028900007C0E8EDF0E084919FEF9093F60201C04D
:1028A0008FEFD1DF60E08C2FCF91C0CD1F920F92C0
:1028B0000FB60F9211242F933F934F935F936F9313
:1028C0007F938F939F93AF93BF93EF93FF938091E9
:1028D0006D0590916E05A0916F05B0917005892BE3
:1028E0008A2B8B2B51F190916A05E0916B05F09149
:1028F0006C0580818927808380916D0590916E059C
:10290000A0916F05B0917005181619061A061B06DE
:10291000BCF480916D0590916E05A0916F05B0910A
:1029200070050197A109B10980936D0590936E051B
:10293000A0936F05B093700503C08091F602A3DFEA
:10294000FF91EF91BF91AF919F918F917F916F9187
:102950005F914F913F912F910F900FBE0F901F905D
:1029600018954F925F926F927F92AF92BF92CF92E3
:10297000DF92EF92FF920F931F93CF93DF93CDB728
:10298000DEB729013A019B01AC012419350946093A
:10299000570989899A89AB89BC89BC01CD016A191B
:1029A0007B098C099D090E94E124A8019701241943
:1029B0003509460957090E943125CA01B9016A0D36
:1029C0007B1D8C1D9D1DDF91CF911F910F91FF905D
:1029D000EF90DF90CF90BF90AF907F906F905F901F
:1029E0004F90089540E855E260E070E080E090E0AC
:1029F00000C026E08DEC94E013CE1F920F920FB62C
:102A00000F9211242F933F934F935F936F937F9374
:102A10008F939F93AF93BF93EF93FF9383E880933C
:102A2000B200809171058F5F80937105853021F42C
:102A3000109271050E94BA22FF91EF91BF91AF9160
:102A40009F918F917F916F915F914F913F912F91C6
:102A50000F900FBE0F901F90189583E88093B200DF
:102A6000A0E7B0E08C918E7F8C93E0EBF0E080816A
:102A70008C7F8083E1EBF0E08081877F80838081A1
:102A80008660808380818E7F80838C9181608C932F
:102A9000089581E008956F927F928F929F92AF92F6
:102AA000BF92CF92DF92EF92FF920F931F93CF933B
:102AB000DF933C017B015A0101E010E00E151F0578
:102AC00064F568018FEFC81AD80AE801CC0FDD1F42
:102AD000CA0DDB1D8880998081149104E1F066ECB9
:102AE00073E0C4010E94CB26892B19F41982188245
:102AF00012C069EC73E0C4010E94CB26892B59F403
:102B0000EC14FD0441F06801E2E0CE0ED11C198204
:102B100018821B821A828601D1CF81E0F301808363
:102B2000B501C7010E942220F3019283818380E0D6
:102B300090E0DF91CF911F910F91FF90EF90DF9088
:102B4000CF90BF90AF909F908F907F906F9008959F
:102B500082E795E0089580E008950F931F93CF9347
:102B6000DF938B01BA01E901198218829801012EC5
:102B7000000C440B550BFC01818192817CDA01969B
:102B800021F01983088380E001C081E0DF91CF91BB
:102B90001F910F9108950F931F93CF93DF9300D050
:102BA000CDB7DEB7FB018A01B9019E012F5F3F4F10
:102BB000AF01FC01818192810E943920019639F098
:102BC00089819A81F8019183808380E001C081E04E
:102BD0000F900F90DF91CF911F910F910895FC01FD
:102BE000808108950895089581E0FB01808380E04D
:102BF0000895089510929A050895FC0181819281AB
:102C00000C941920CF93DF93CDB7DEB72A970FB678
:102C1000F894DEBF0FBECDBFAC01CB0160E070E029
:102C200049835A836B837C83092E000CAA0BBB0B50
:102C30008D839E83AF83B8879E01275F3F4FAE0190
:102C40004F5F5F4F68E070E08091890590918A0541
:102C500084DF811108C081E029853A85283031055B
:102C600019F480E001C081E02A960FB6F894DEBF27
:102C70000FBECDBFDF91CF9108950F931F93CF93D8
:102C8000DF9300D0CDB7DEB78B019E012F5F3F4FA2
:102C9000AC018091890590918A055FDF811108C0A0
:102CA00081E029813A812017310719F480E001C0C1
:102CB00081E00F900F90DF91CF911F910F910895B8
:102CC000CF93DF93EC0110928D0510928C0510923A
:102CD000990510929805AC0160E070E0CB010E946C
:102CE000B409AE0161E070E080E090E00E94B409B8
:102CF0008091890590918A05DF91CF917ACF4F928B
:102D00005F926F927F928F929F92AF92BF92CF927B
:102D1000DF92EF92FF920F931F93CF93DF9300D038
:102D2000CDB7DEB79C016C0197FF03C087E0C80EEA
:102D3000D11C43E0D594C7944A95E1F7C90168E0F6
:102D400070E00E94FC245C0189010E5F1F4F80919E
:102D5000870590918805801791070CF0AEC080918F
:102D6000850590918605009731F00E9432261092D9
:102D7000880510928705C8010E949A2590938605C0
:102D800080938505892B19F400E010E033C010937F
:102D900088050093870591C089819A81E80EF91E04
:102DA0008AE0E816F10409F078C149E050E060E0FB
:102DB00070E08EE895E00E94BA20609198057091CD
:102DC0009905882309F49BC18091960590E08617A8
:102DD000970781F4BC018EEE90E014DF8091980596
:102DE000909199050196992790939905809398055C
:102DF0000F5F1F4F0C151D050CF47BC1AB2809F4A8
:102E000060C1C12CD12C760100E010E0980122575E
:102E10003A4FAE014F5F5F4F61E070E080918905EE
:102E200090918A05B8DE81114CC18FEFC81AD80A7B
:102E3000E80AF80A80E9C8168FE5D80681E0E806B6
:102E4000F1043CF060919805709199058DEE90E049
:102E50002DC089819A81080F191F0A30110541F58B
:102E600049E050E060E070E08EE895E00E94BA2012
:102E700060919805709199058823B1F0809196052D
:102E800090E08617970709F01CC1BC018EEE90E018
:102E9000B9DE8091980590919905019699279093B4
:102EA0009905809398050DC18FEE90E0ABDEA9CF18
:102EB0000A3011050CF4AACF04C100E010E00C1593
:102EC0001D050CF078C0412C512C3201E12CF12C65
:102ED000480193E0880C991C9A95E1F720918505AB
:102EE00030918605C701880D991D280F391FAE0145
:102EF0004F5F5F4F61E070E08091890590918A0596
:102F00004ADE8111DEC08FEF481A580A680A780A33
:102F100080E948168FE5580681E0680671043CF0A8
:102F200060919805709199058DEE90E037C0898188
:102F30009A81E80EF91E8AE0E816F104B1F549E03D
:102F400050E0B40180918505909186050E94BA20D9
:102F500060919805709199058823F1F0809185051D
:102F600090918605FC01E80DF91D808590E086179B
:102F7000970709F0A4CFBC018EEE90E043DE80916C
:102F800098059091990501969927909399058093BA
:102F900098050F5F1F4F93CF8FEE90E033DE412CEB
:102FA000512C3201E12CF12C99CF8AE0E816F10482
:102FB0000CF494CF84CFA114B10409F4A3C0412C24
:102FC000512C3201E12CF12C970122573A4FAE01DE
:102FD0004F5F5F4F61E070E08091890590918A05B5
:102FE000DADD81116EC08FEF481A580A680A780A34
:102FF00080E948168FE5580681E0680671043CF0C8
:1030000060919805709199058DEE90E03EC08981A0
:103010009A81E80EF91E8AE0E816F104C1F549E04C
:1030200050E060E070E08EE895E00E94BA20609188
:10303000980570919905882331F18091960590E06B
:103040008617970709F05EC0BC018EEE90E0DADDCE
:1030500083E0000F111F8A95E1F78091850590911B
:103060008605A5016EE875E0800F911F0E94BB26C2
:1030700080919805909199050196992790939905CB
:10308000809398053FC08FEE90E0BCDD98CF8AE03A
:10309000E816F1040CF498CF35C08AE0E816F10484
:1030A0000CF0A8CE970122573A4FAE014F5F5F4F09
:1030B00061E070E08091890590918A056CDD88233C
:1030C00019F080E090E022C08FEF481A580A680A91
:1030D000780A80E948168FE5580681E06806710491
:1030E0000CF45ACE60919805709199058DEE90E0A0
:1030F00089DD412C512C3201E12CF12CD3CF8FEE04
:1031000090E0F6CF80918505909186050F900F9005
:10311000DF91CF911F910F91FF90EF90DF90CF90B3
:10312000BF90AF909F908F907F906F905F904F90E7
:103130000895CF92DF92EF92FF920F931F93CF9358
:10314000DF931F92CDB7DEB76C017B018A01452B5F
:1031500039F0AB0160E070E0C8010E94B6208983BD
:10316000B701C6014FDD81110DC00115110551F0E8
:10317000B701C80182DD811105C061E070E0CE01B8
:1031800001967BDD0F90DF91CF911F910F91FF9002
:10319000EF90DF90CF900895CF92DF92EF92FF9261
:1031A000CF93DF93CDB7DEB728970FB6F894DEBF85
:1031B0000FBECDBF6B01E12CF12CC982DA82EB820C
:1031C000FC822D833E834F835887AE014F5F5F4F54
:1031D00068E070E0AEDF28960FB6F894DEBF0FBE51
:1031E000CDBFDF91CF91FF90EF90DF90CF9008950A
:1031F0008F929F92AF92BF92CF92DF92EF92FF9207
:103200000F931F93CF93DF93EC017B01CA016901F8
:1032100076DD009749F42FEF3FEFA90161E070E000
:10322000CE01BADF81E03AC0FC0180809180A280AB
:10323000B380CB31D10561F0CC31D105E9F4BC01CB
:103240006C5F7F4FA5019401C7010E941D0809C052
:10325000AC014C5F5F4F95018401B601C7010E942C
:103260001006F82E882341F0A501940161E070E07A
:10327000CE0192DF8F2D12C0A501940160E070E0B5
:10328000CE01DF91CF911F910F91FF90EF90DF90D2
:10329000CF90BF90AF909F908F907ECFDF91CF91D6
:1032A0001F910F91FF90EF90DF90CF90BF90AF9064
:1032B0009F908F9008950F931F93CF93DF93EC010E
:1032C0008B0146DC90938A0580938905009739F03D
:1032D000A801BE01E0DBEC01892B19F40BC0C5EDA0
:1032E000D3E08091890590918A057CDC10928A0553
:1032F00010928905CE01DF91CF911F910F91089512
:103300008091890590918A056ACC2F923F924F92C5
:103310005F926F927F928F929F92AF92BF92CF9265
:10332000DF92EF92FF920F931F93CF93DF93CDB76E
:10333000DEB76B970FB6F894DEBF0FBECDBF2091FE
:103340008D05222309F425C25D8B4C8B688B798B0C
:103350008A8B9B8B9A01AB01BC01CE0101967C014B
:103360000E94A80E10E038E0232E312CEA8EFB8E4E
:1033700089819A81181619060CF006C21F861E86CE
:103380001D861C8689819A81AC85BD85A817B907E1
:103390000CF0EFC1EB81FC81AE85BF85EA0FFB1F0E
:1033A0002081318130938405209383058481958128
:1033B0004281538150938205409381054681578114
:1033C0005093800540937F05820F931F9C01990FB6
:1033D000440B550B2E8B3F8B488F598FC12CD12C12
:1033E00076012E893F89488D598DC216D306E40691
:1033F000F50608F0A2C11F826091830570918405D3
:103400008B01072E000C220B330BD701C60104964B
:10341000A11DB11D80179107A207B30728F4E09101
:103420008105F09182050AC0E4E0F0E0E61BF70BAD
:10343000EC0DFD1D80917F0590918005E80FF91F2F
:103440004080512C612C712CD701C6010596A11D1D
:10345000B11D80179107A207B30728F4E0918105F9
:10346000F09182050AC0E5E0F0E0E61BF70BEC0DF9
:10347000FD1D80917F0590918005E80FF91F8081E7
:10348000582AD701C6010696A11DB11D80179107C4
:10349000A207B30728F4E0918105F09182050AC0E4
:1034A000E6E0F0E0E61BF70BEC0DFD1D80917F05DB
:1034B00090918005E80FF91F8081682AD701C60125
:1034C0000796A11DB11D80179107A207B30728F425
:1034D000E0918105F09182050AC0E7E0F0E0E61B8B
:1034E000F70BEC0DFD1D80917F0590918005E80F95
:1034F000F91F8081782A4601570148E0840E911C0B
:10350000A11CB11C081519052A053B0508F4B4C017
:10351000C016D106E206F30638F480918105909139
:1035200082058C0D9D1D09C0C601861B970B20913D
:103530007F0530918005820F931F68E070E09DDB6E
:10354000E0918305F09184059F010F2E000C440B40
:10355000550BD301C201880D991DAA1DBB1D28174B
:1035600039074A075B07C8F082169306A406B5061A
:1035700038F42091810530918205C601089609C072
:10358000C1018E1B9F0B8C0D9D1D20917F053091DD
:103590008005820F931FB20199C08601BF01685058
:1035A00071096C197D0982169306A406B50638F4D4
:1035B0002091810530918205C601089609C0C1019C
:1035C0008E1B9F0B8C0D9D1D20917F0530918005DA
:1035D000820F931F52DB8091830590918405B10186
:1035E000681B790B600F711F640D751D80917F053D
:1035F0009091800542DB8091830590918405AC0118
:1036000048505109FA01E01BF10BAC01092E000CE6
:10361000660B770B84169506A606B70638F420913C
:10362000810530918205C80108960AC09101281BC6
:10363000390BC901800F911F20917F0530918005C2
:10364000820F931FAF0160E070E090D58F832091CF
:10365000830530918405A101421B530B9A01200F71
:10366000311F240D351D40E050E0682F80917F050B
:103670009091800561D550C0C016D106E206F306D0
:10368000C8F46C197D0980918105909182058C0D9B
:103690009D1DF3DA8091830590918405B101681B2B
:1036A000790B6C0D7D1D640D751D80917F059091CA
:1036B00080050CC0C601861B970B20917F053091B9
:1036C0008005B201685F7F4F820F931FD6DA809129
:1036D000830590918405AC01092E000C660B770BD5
:1036E00084169506A606B70638F420918105309118
:1036F0008205C60108960AC0D101A81BB90BCD01ED
:103700008C0D9D1D20917F0530918005820F931FA8
:10371000A20160E070E02AD58F8361E070E0CE0105
:103720000796ABDA182FB8E04B0E511C611C711CC8
:10373000C40CD51CE61CF71C54CE8C859D85880FC7
:10374000991FED81FE81E80FF91F488959896A891F
:103750007B89808191810E94E6094C855D854F5F60
:103760005F4F5D874C878E859F8508969F878E87E4
:1037700009CE2C893D89488959896A897B898A8D36
:103780009B8D0E94A80EF4CD112319F08C899D8980
:1037900097DA6B960FB6F894DEBF0FBECDBFDF9100
:1037A000CF911F910F91FF90EF90DF90CF90BF903E
:1037B000AF909F908F907F906F905F904F903F90D1
:1037C0002F900895CF93DF93EC01AC0160E070E09F
:1037D000CB019BDDAE0161E070E080E090E0DF9125
:1037E000CF9193CDCF938091890590918A05B3D9DC
:1037F000C82F81110BC060E070E0CB010E94C204B1
:1038000061E070E080E090E00E94C2048C2FCF91D4
:1038100008950F931F9389019A01AB01BC01809118
:10382000890590918A05DFD91F910F9108953F92E4
:103830004F925F926F927F928F929F92AF92BF92C0
:10384000CF92DF92EF92FF920F931F93CF93DF936C
:10385000CDB7DEB763970FB6F894DEBF0FBECDBF0E
:103860006C018B015A0180918D05882331F0809184
:103870008D05882309F429C30AC06DE875E080919D
:10388000890590918A05B0D981111FC3F0CF80912D
:103890008C051A821982882309F46CC0E0E94E2E47
:1038A000EFE55E2E66246394712CE12CF12C9701D8
:1038B0002B583A4FAE014F5F5F4F61E070E080914F
:1038C000890590918A0567D9982E81114FC0898109
:1038D0009A81E80EF91EE114F10409F447C081E071
:1038E000481A51086108710839F46091980570917F
:1038F00099058DEE90E031C0AAE0EA16F10489F551
:1039000049E050E060E070E085E795E033D46091F5
:103910009805709199058823F1F080917D0590E0DC
:1039200086179707D9F4BC018EEE90E06BD988E03A
:10393000E5E7F5E0DE01199601900D928A95E1F731
:1039400080919805909199050196992790939905F2
:10395000809398050BC08FEE90E054D91A8219829B
:1039600005C0BAE0EB16F1040CF4A1CF81E0298187
:103970003A8125C0E12CF12C78E0672E712C29E0EA
:1039800030E02C0F3D1F2E0D3F1DAE014F5F5F4FEE
:10399000B3016E197F098091890590918A05FBD842
:1039A000982E29813A81811109C0E20EF31EE1149B
:1039B000F10421F0E8E0EE16F1040CF381E01216B8
:1039C00013060CF080E091107DC2882309F47DC2BB
:1039D00080918C05811104C019861A861B861C866D
:1039E00089859A85AB85BC858031910508F06DC2CB
:1039F000FC01EC5CFF4F0C944D25D6011696ED9121
:103A0000FC91179780819181A281B38189839A83E8
:103A1000AB83BC83AE014F5F5F4F64E070E085E134
:103A200090E04DC18D859E856AD9009731F42FEFC6
:103A30003FEFA90161E070E00EC0FC01C080D180C1
:103A4000E280F380A801C701B6010E945F09A701C7
:103A5000960160E070E08DE190E032C24D855E85B8
:103A60009801B6018BE190E007C04D855E852FEF90
:103A70003FEFB6018CE190E0BBDB27C2D601149684
:103A8000ED91FC91159700811181F801828093805E
:103A9000A080B18060E1462E512C612C712C4982AE
:103AA0005A826B827C8288E090E0A0E0B0E08D8357
:103AB0009E83AF83B8879E012F5E3F4FAE014F5F5D
:103AC0005F4F68E070E08091890590918A0545D844
:103AD000882319F000E010E0BBC089899A89089713
:103AE000C9F7D801ED90FC90B8E0EB0EF11CEE0C9C
:103AF000FF1CEE0CFF1CC7010E949A258C01892B2C
:103B000049F349825A826B827C82C7010F2C000CD8
:103B1000AA0BBB0B8D839E83AF83B8879E012F5E5C
:103B20003F4FAE014F5F5F4F68E070E080918905C5
:103B300090918A0512D881118BC089899A8908973A
:103B400009F086C0D6011296ED91FC911397408141
:103B5000518162817381D8014D935D936D937C9304
:103B60001397448155816681778114964D935D93B7
:103B70006D937C9317974085518562857385189660
:103B80004D935D936D937C931B9784859585A68556
:103B9000B785F80184879587A687B787108A118A29
:103BA000128A138A84E090E0A0E0B0E0848B958BC9
:103BB000A68BB78B8091F0029091F102A0E0B0E06B
:103BC000808F918FA28FB38FC5010B2C000CAA0B95
:103BD000BB0B848F958FA68FB78FF401D801909679
:103BE00080E090E08A159B0554F44191519160E08A
:103BF00070E04D935D936D937D930196F3CF9E019D
:103C00002F5E3F4FA801B7018091890590918A05E9
:103C10000E94AD1581111CC089899A89E816F906A0
:103C2000B9F4A70160E070E0C801A0D28B8B9E01BF
:103C30002F5E3F4FAE014D5E5F4F61E070E08091BF
:103C4000890590918A050E94AD1581E080938C05CD
:103C5000C80163960FB6F894DEBF0FBECDBFDF91EB
:103C6000CF911F910F91FF90EF90DF90CF90BF9079
:103C7000AF909F908F907F906F905F904F903F900C
:103C8000F1C78D859E85AF85B8890097A105B105DF
:103C900021F481E080938B0518C131D8009789F415
:103CA00081E090E0A0E0B0E089839A83AB83BC839D
:103CB000AE014F5F5F4F64E070E082E190E039DA7F
:103CC00004C1BC01C6010E94170419821A821B821A
:103CD0001C82AE014F5F5F4F64E070E082E190E0D4
:103CE00028DA8111F2C0D5CFD6011496ED91FC915E
:103CF00015970190F081E02D008511858FEF898364
:103D00000115110509F472C0D8014D905C906280D4
:103D1000738020E030E060E070E080E090E08415A7
:103D200095050CF5F801A281B381A20FB31F12967D
:103D3000ED91FC911397EE0FFF1FE60DF71D01901B
:103D4000F081E02D16960D90BC91A02DEA9FA00168
:103D5000EB9F500DFA9F500D1124640F751F0196B3
:103D6000285F3F4FDCCF83E190E00E940216811173
:103D7000ACC0C12CD12CE12CF12CE414F5047CF561
:103D8000D8011296ED91FC911397EC0DFD1DA080CA
:103D9000B180A281B381AA0FBB1FA60DB71D2D91C3
:103DA0003C9186819781289F4001299F900C389FE4
:103DB000900C1124B401C5010E943D16382E9401C7
:103DC00040E050E06981C501B7D18983B8E0CB0EEE
:103DD000D11C31107AC0EFEFEE1AFE0ACECF61E0AF
:103DE00070E0CE0101960E943D166FC060E070E069
:103DF00083E190E00E94021668C040E050E060E07D
:103E000070E081E190E095D981115FC0C12CD12C87
:103E10007601C701B6010E94F7058091C10488238D
:103E200021F0A801C701B60170DAA801C701B601E7
:103E30000E94EE04FFEFCF1ADF0AEF0AFF0A82E0CA
:103E4000C816D104E104F10421F710928D051092F7
:103E50008C05109299051092980580918905909192
:103E60008A050E94FA1531C081E090E09093C30466
:103E70008093C20440E050E060E070E086E190E0B2
:103E80001ECF81E0D5018C9320C08D859E850E9438
:103E90007F16009731F42FEF3FEFA90161E070E04A
:103EA0000DC0FC01C080D180E280F380C701B60163
:103EB0000E94BF09A701960160E070E08EE190E0EA
:103EC0006BD903C0C8010E94601663960FB6F894C0
:103ED000DEBF0FBECDBFDF91CF911F910F91FF903D
:103EE000EF90DF90CF90BF90AF909F908F907F909A
:103EF0006F905F904F903F900895CF92DF92EF9236
:103F0000FF92CF93DF93EC01C12CD12C7601C70136
:103F1000B6010E94F705AE01C701B601F6D9AE01A0
:103F2000C701B6010E94EE04809185059091860537
:103F3000009729F097D610928605109285058FEF8D
:103F4000C81AD80AE80AF80A82E0C816D104E104BF
:103F5000F104E9F680918C05882359F040E050E0A7
:103F600060E070E084E190E0E4D8F82E10928C05D7
:103F700001C0F12C80918D05882341F010928D05B0
:103F800081E090E09093F1028093F00280918905A6
:103F900090918A050E94FD158091890590918A056E
:103FA0000E94F2158F2DDF91CF91FF90EF90DF905F
:103FB000CF900895CF93DF93EC01AC0160E070E007
:103FC000CB010E94170EAE0161E070E080E090E04E
:103FD000DF91CF910C94170E60E070E0CB010E944E
:103FE000850E61E070E080E090E00C94850ECF9249
:103FF000DF92EF92FF920F931F93CF93DF93EC0129
:104000006A017B0100E010E098010E940F0A01E0C4
:1040100010E020E030E0B701A601CE010E940F0AB7
:10402000DF91CF911F910F91FF90EF90DF90CF9094
:10403000089568EE73E080E090E00E943D1180E01A
:1040400090E0089526E040E050E16EE070E08DECF5
:1040500094E00E9410138DEC94E00E944412892B8E
:1040600029F08DEC94E00E945E12F5CF80E090E0A4
:104070000895CF92DF92EF92FF920F931F93CF9309
:10408000DF936B017A01E901198218828DEC94E0CB
:104090000E9444128E159F0580F18601CC24C394A2
:1040A00085E6D82E80919A05811122C08DEC94E08E
:1040B0000E945E1285369105A9F7C0929A05F80113
:1040C000D1928F0188819981019699838883EACF63
:1040D0008DEC94E00E945E128F3FFFEF9F0741F04E
:1040E000F80181938F018881998101969983888352
:1040F000888199818E159F0558F380E090E0DF91CB
:10410000CF911F910F91FF90EF90DF90CF90089586
:104110000F931F93CF93DF93EA0189018DEC94E015
:104120000E94F913F801D183C08380E090E0DF9111
:10413000CF911F910F910895CF93DF93EC01DC0194
:10414000A40FB51F240F351FCD018C1B9D0B8217AB
:10415000930740F49D91E62FE927F0E0E752FF4FE7
:104160006491F2CF862FDF91CF9108959A01AB0130
:104170006FEFE2CFCF93FC01E60FF71FE40FF51FBF
:10418000C081F4DF91E0C81390E0892FCF910895AA
:104190001F920F920FB60F9211242F933F934F93BC
:1041A0005F936F937F938F939F93AF93BF93EF939F
:1041B000FF9380919C0587FF05C0109285001092A7
:1041C00084001BC020919C05022E000C330B8091B3
:1041D0009B0590E02817390784F480919C05082EF0
:1041E000000C990BFC01EE0FFF1F8E0F9F1FFC01AF
:1041F000E356FA4F808186FD15C080919C058F5F44
:1042000080939C0520919C05022E000C330B80911D
:104210009B0590E028173907C4F480919C058C30E9
:1042200064F113C080919C05082E000C990BFC01D1
:10423000EE0FFF1F8E0F9F1FFC01E356FA4F808188
:1042400060E08F730E941612D8CF80918400909105
:104250008500049680349C4918F480E49CE905C0EC
:1042600080918400909185000496909389008093BA
:1042700088008FEF80939C053BC020918400309193
:10428000850080919C05082E000C990BFC01EE0F17
:10429000FF1F8E0F9F1FFC01E356FA4F8181928111
:1042A000820F931F909389008093880080919C05D2
:1042B000082E000C990BFC01EE0FFF1F8E0F9F1FA5
:1042C000FC01E356FA4F808186FF12C080919C0565
:1042D000082E000C990BFC01EE0FFF1F8E0F9F1F85
:1042E000FC01E356FA4F808161E08F730E94161241
:1042F000FF91EF91BF91AF919F918F917F916F91BE
:104300005F914F913F912F910F900FBE0F901F9093
:104310001895FC0190919B059C30A0F481E0890FD9
:1043200080939B059083892F90E0FC01EE0FFF1F87
:104330008E0F9F1FFC01E356FA4F88EB9BE09283A0
:10434000818308958FEF80830895DF92EF92FF922B
:104350000F931F93CF93DF93EC01D62E7A0189013F
:1043600088818C3008F067C061E08D2D0E94DA11E1
:104370008881E82FF0E09F01220F331FE20FF31F27
:10438000E356FA4F9D2D9F732081207CD22ED92A8F
:10439000D08220E232E02E193F0937FF02C02D5FA4
:1043A0003F4F3595279535952795298320E639E0A8
:1043B000201B310B37FF02C02D5F3F4F35952795EE
:1043C000359527952A836CE00BD39CE0899FB0013B
:1043D000112440E050E09B01240F351FF901EE0F3E
:1043E000FF1F2E0F3F1FF901E356FA4F908196FDF4
:1043F00016C04F5F5F4F4C30510569F781110FC0F8
:104400001092800082E080938100109285001092CB
:104410008400B19A80916F00826080936F00E88180
:10442000F0E0CF01880F991FE80FF91FE356FA4F0C
:104430008081806480838881DF91CF911F910F916B
:10444000FF90EF90DF90089520E639E040E252E0DF
:104450007CCFFC0190819C3088F5818128E830E098
:10446000281B310987FD3395220F331F220F331F7D
:104470006217730784F0828148E552E0481B5109B6
:1044800087FD5395440F551F440F551F9B01461739
:1044900057070CF49A0122503109220F331F4FB7EE
:1044A000F894892F90E0FC01EE0FFF1F8E0F9F1FE5
:1044B000FC01E356FA4F328321834FBF0895AF9238
:1044C000BF92CF92DF92EF92FF920F931F93CF9301
:1044D000DF93EC01603282E078070CF03FC077FD9B
:1044E00006C0653B71052CF064EB70E002C060E033
:1044F00070E0898128E830E05901A81AB10887FDE9
:10450000B394AA0CBB1CAA0CBB1C0B2C000CCC0833
:10451000DD08072E000C880B990B2A8108E512E0B4
:10452000021B110927FD1395000F111F000F111F0A
:10453000012E000C220B330B3F932F931F930F93ED
:1045400014EBE12EF12C00E010E020E030E0A901B6
:104550000E94B1140F900F900F900F90CE01DF9139
:10456000CF911F910F91FF90EF90DF90CF90BF9070
:10457000AF906FCF8091C30591E0980F9093C305E2
:10458000882349F021E030E03093C5052093C4052D
:104590008093C305089578940E943201F894809125
:1045A000C30581508093C3050C942B10FF920F9389
:1045B0001F93CF93DF931F92CDB7DEB71092C20542
:1045C0001092C1050E9476110E94F2140091B2036C
:1045D0001091B303F8011182108260E070E080E076
:1045E00090E00E9434100E9423027894C8018696BD
:1045F0000E94331081E090E00E942F101982AE01DA
:104600004F5F5F4F61E070E0F801828193810E940B
:10461000D90F8981882319F081E0F80182A70E94CF
:104620003A10F8940E942D15F80180819181892B10
:1046300019F481E092A5911180E08093C1057894EE
:104640007894FF24F3948091C105882341F1198265
:10465000AE014F5F5F4F61E070E0F80182819381AE
:104660000E9415108981882311F0F801F2A6F80143
:1046700080819181892B31F481E092A5911103C051
:1046800080E001C081E08093C2059091C20581E085
:10469000911180E08093C1050E944915D4CF0E94FA
:1046A000EA0281E090E00E943110F89480E090E00E
:1046B0000F90DF91CF911F910F91FF900895505867
:1046C000BB27AA270ED0DCC0CDD030F0D2D020F04E
:1046D00031F49F3F11F41EF4C2C00EF4E095E7FBE5
:1046E000B8C0E92FDED080F3BA17620773078407DA
:1046F000950718F071F49EF5F6C00EF4E0950B2EB8
:10470000BA2FA02D0B01B90190010C01CA01A00123
:104710001124FF27591B99F0593F50F4503E68F17E
:104720001A16F040A22F232F342F4427585FF3CFBF
:10473000469537952795A795F0405395C9F77EF490
:104740001F16BA0B620B730B840BBAF09150A1F0D9
:10475000FF0FBB1F661F771F881FC2F70EC0BA0F5F
:10476000621F731F841F48F4879577956795B795E7
:10477000F7959E3F08F0B3CF9395880F08F09927DF
:10478000EE0F97958795089540D008F481E008953D
:10479000E89409C097FB3EF49095809570956195DB
:1047A0007F4F8F4F9F4F9923A9F0F92F96E9BB2791
:1047B0009395F695879577956795B795F111F8CF0D
:1047C000FAF4BB0F11F460FF1BC06F5F7F4F8F4F78
:1047D0009F4F16C0882311F096E911C0772321F06E
:1047E0009EE8872F762F05C0662371F096E8862F06
:1047F00070E060E02AF09A95660F771F881FDAF75D
:10480000880F9695879597F90895990F0008550F89
:10481000AA0BE0E8FEEF16161706E807F907C0F046
:1048200012161306E407F50798F0621B730B840B4E
:10483000950B39F40A2661F0232B242B252B21F428
:1048400008950A2609F4A140A6958FEF811D811DC8
:10485000089597F99F6780E870E060E008959FEF02
:1048600080EC089500240A94161617061806090607
:10487000089500240A9412161306140605060895D6
:10488000092E0394000C11F4882352F0BB0F40F45E
:10489000BF2B11F460FF04C06F5F7F4F8F4F9F4F9E
:1048A000089557FD9058440F551F59F05F3F71F020
:1048B0004795880F97FB991F61F09F3F79F0879587
:1048C0000895121613061406551FF2CF4695F1DF10
:1048D00008C0161617061806991FF1CF86957105A0
:1048E000610508940895E894BB2766277727CB01D4
:1048F00097F908958ADF08F48FEF08950BD0C0CFA1
:10490000B1DF28F0B6DF18F0952309F0A2CFA7CFCA
:104910001124EACFC6DFA0F3959FD1F3950F50E0A5
:10492000551F629FF001729FBB27F00DB11D639F61
:10493000AA27F00DB11DAA1F649F6627B00DA11D07
:10494000661F829F2227B00DA11D621F739FB00DAD
:10495000A11D621F839FA00D611D221F749F33271D
:10496000A00D611D231F849F600D211D822F762FB6
:104970006A2F11249F5750408AF0E1F088234AF0B3
:10498000EE0FFF1FBB1F661F771F881F91505040FF
:10499000A9F79E3F510570F05CCFA6CF5F3FECF3C7
:1049A000983EDCF3869577956795B795F795E795EB
:1049B0009F5FC1F7FE2B880F911D9695879597F9FC
:1049C0000895DB018F939F936ED0BF91AF91A29F0B
:1049D000800D911DA39F900DB29F900D11240895FD
:1049E000991B79E004C0991F961708F0961B881F41
:1049F0007A95C9F78095089597FB072E16F40094D1
:104A000006D077FD08D059D007FC05D03EF490952C
:104A100081959F4F0895709561957F4F0895A1E20C
:104A20001A2EAA1BBB1BFD010DC0AA1FBB1FEE1F28
:104A3000FF1FA217B307E407F50720F0A21BB30B73
:104A4000E40BF50B661F771F881F991F1A9469F7EF
:104A500060957095809590959B01AC01BD01CF014B
:104A60000895052E97FB16F400940FD057FD05D03E
:104A7000D6DF07FC02D046F408C05095409530952B
:104A800021953F4F4F4F5F4F0895909580957095BA
:104A900061957F4F8F4F9F4F0895EE0FFF1F059039
:104AA000F491E02D09941DD0A59F900DB49F900D19
:104AB000A49F800D911D11240895AA1BBB1B51E1D9
:104AC00007C0AA1FBB1FA617B70710F0A61BB70B7E
:104AD000881F991F5A95A9F780959095BC01CD0123
:104AE0000895A29FB001B39FC001A39F700D811DC7
:104AF0001124911DB29F700D811D1124911D0895E7
:104B00000F931F93CF93DF93869F8001879F100D94
:104B1000969F100D1124C8010DD0EC01009721F0D3
:104B2000A80160E070E030D1CE01DF91CF911F91FC
:104B30000F9108950F931F93CF93DF9382309105C8
:104B400010F482E090E0E0913B06F0913C0620E01A
:104B500030E0A0E0B0E0309719F14081518102814E
:104B6000138148175907C8F08417950769F41097FF
:104B700031F012960C93129713961C9327C0009352
:104B80003B0610933C0622C02115310519F042174F
:104B9000530718F49A01BD01EF01DF01F801DBCFE3
:104BA00021153105F9F0281B390B2430310580F42B
:104BB0008A819B816115710521F0FB0193838283BA
:104BC00004C090933C0680933B06FE01329644C09D
:104BD000FE01E20FF31F8193919322503109398333
:104BE00028833AC02091390630913A06232B41F4AC
:104BF000209102013091030130933A062093390647
:104C000020910001309101012115310541F42DB7AA
:104C10003EB74091040150910501241B350BE091F2
:104C20003906F0913A06E217F307A0F42E1B3F0B6A
:104C30002817390778F0AC014E5F5F4F241735070E
:104C400048F04E0F5F1F50933A0640933906819308
:104C5000919302C0E0E0F0E0CF01DF91CF911F918E
:104C60000F910895CF93DF93009709F481C0FC0161
:104C7000329713821282A0913B06B0913C061097A6
:104C800081F420813181820F931F20913906309168
:104C90003A062817390751F5F0933A06E09339069A
:104CA00067C0ED0120E030E0CE17DF0740F44A8115
:104CB0005B819E0141155105F1F0EA01F5CFD383E7
:104CC000C28340815181840F951FC817D90759F4B9
:104CD00088819981840F951F0296918380838A81B0
:104CE0009B81938382832115310529F4F0933C063F
:104CF000E0933B063DC0E901FB83EA83499159916A
:104D0000C40FD51FEC17FD0761F480819181840FDA
:104D1000951F0296E90199838883828193819B8301
:104D20008A83E0E0F0E012968D919C9113970097B2
:104D300019F0FD01DC01F7CF8D919C9111979D0138
:104D40002E5F3F4F820F931F2091390630913A0614
:104D50002817390769F4309729F410923C0610920D
:104D60003B0602C013821282B0933A06A093390622
:104D7000DF91CF910895FB01DC0102C001900D92FB
:104D800041505040D8F70895DC0101C06D93415067
:104D90005040E0F70895FB01DC018D9101908019EE
:0C4DA0000110D9F3990B0895F894FFCF8F
:104DAC0000003D06800003000A017E0105000000A2
:104DBC0001008001030000006801E802050000000A
:104DCC00030003002601F1050E0000000100F705A9
:104DDC000F000000040037060500000001000B0363
:104DEC0012031C031B03240323032D032C03350381
:104DFC003F03AB034A0354035D03710391030400A7
:104E0C000400010001000200020004000400010083
:104E1C0004000200020004000800060010006701F4
:104E2C00000102030405060708090A0B0C0D0E0FFE
:104E3C00101112131415161718191A1B1C1D1E1FEE
:104E4C00202122232425262728292A2B2C2D2E2FDE
:104E5C00303132333435363738393A3B3C3D3E3FCE
:104E6C00404142434445464748494A4B4C4D4E4FBE
:104E7C00505152535455565758595A5B5C5D5E5FAE
:104E8C00606162636465666768696A6B6C6D6E6F9E
:104E9C00707172737475767778797A7B7C7D7E7F8E
:104EAC00808182838485868788898A8B8C8D8E8F7E
:104EBC00909192939495969798999A9B9C9D9E9F6E
:104ECC00A0A1A2A3A4A5A6A7A8A9AAABACADAEAF5E
:104EDC00B0B1B2B3B4B3B2B1B0AFAEADACABAAA9D2
:104EEC00A8A7A6A5A4A3A2A1A09F9E9D9C9B9A99AE
:104EFC009897969594939291908F8E8D8C8B8A899E
:104F0C008887868584838281807F7E7D7C7B7A798D
:104F1C007877767574737271706F6E6D6C6B6A697D
:104F2C006867666564636261605F5E5D5C5B5A596D
:104F3C005857565554535251504F4E4D4C4B4A495D
:104F4C004847464544434241403F3E3D3C3B3A394D
:104F5C003837363534333231302F2E2D2C2B2A293D
:104F6C002827262524232221201F1E1D1C1B1A192D
:104F7C001817161514131211100F0E0D0C0B0A091D
:104F8C0008070605040302010000000001000101EE
:104F9C0001007F107F10FF53696D756C6174696F30
:104FAC006E2066696E6973686564007265616C5F1A
:104FBC0054007265616C33325F540075696E7438DD
:104FCC005F540075696E7431365F540075696E7488
:104FDC0033325F5400626F6F6C65616E5F540066B4
:104FEC00636E5F63616C6C5F5400706F696E7465A7
:104FFC00725F5400616374696F6E5F540074696D05
:10500C0065725F75696E7433325F706169725F547B
:10501C0000636F6465727461726765745F6172645A
:10502C0075696E6F626173655F696E7465725F54EA
:10503C0000655F636F6465727461726765745F614C
:10504C00726475696E6F626173655F696E745F54CB
:10505C000001C60500000000A312F9137212EF1232
:10506C0044125E1250122D77002D69676E6F7265B7
:10507C002D61726700436F756C64206E6F742063D2
:10508C0072656174652065787465726E616C206DF3
:10509C006F6465207573657220646174612E2020C5
:1050AC004F7574206F66206D656D6F72792E0A00D6
:00000001FF
